{
  "abi": [
    {
      "inputs": [
        {
          "internalType": "contract ERC20",
          "name": "stakingToken",
          "type": "address"
        },
        {
          "internalType": "bytes32",
          "name": "genesis",
          "type": "bytes32"
        }
      ],
      "stateMutability": "nonpayable",
      "type": "constructor"
    },
    {
      "anonymous": false,
      "inputs": [
        {
          "indexed": true,
          "internalType": "address",
          "name": "owner",
          "type": "address"
        },
        {
          "indexed": true,
          "internalType": "address",
          "name": "operator",
          "type": "address"
        },
        {
          "indexed": false,
          "internalType": "bool",
          "name": "approved",
          "type": "bool"
        }
      ],
      "name": "ApprovalForAll",
      "type": "event"
    },
    {
      "anonymous": false,
      "inputs": [
        {
          "indexed": true,
          "internalType": "address",
          "name": "sender",
          "type": "address"
        },
        {
          "indexed": true,
          "internalType": "uint256",
          "name": "fleet",
          "type": "uint256"
        },
        {
          "indexed": true,
          "internalType": "uint256",
          "name": "location",
          "type": "uint256"
        },
        {
          "indexed": false,
          "internalType": "uint256",
          "name": "fleetLoss",
          "type": "uint256"
        },
        {
          "indexed": false,
          "internalType": "uint256",
          "name": "toLoss",
          "type": "uint256"
        },
        {
          "indexed": false,
          "internalType": "bool",
          "name": "won",
          "type": "bool"
        }
      ],
      "name": "Attack",
      "type": "event"
    },
    {
      "anonymous": false,
      "inputs": [
        {
          "indexed": true,
          "internalType": "address",
          "name": "sender",
          "type": "address"
        },
        {
          "indexed": true,
          "internalType": "uint256",
          "name": "fleet",
          "type": "uint256"
        },
        {
          "indexed": true,
          "internalType": "uint256",
          "name": "location",
          "type": "uint256"
        }
      ],
      "name": "FleetArrived",
      "type": "event"
    },
    {
      "anonymous": false,
      "inputs": [
        {
          "indexed": true,
          "internalType": "address",
          "name": "sender",
          "type": "address"
        },
        {
          "indexed": true,
          "internalType": "uint256",
          "name": "from",
          "type": "uint256"
        },
        {
          "indexed": false,
          "internalType": "uint256",
          "name": "fleet",
          "type": "uint256"
        },
        {
          "indexed": false,
          "internalType": "uint256",
          "name": "quantity",
          "type": "uint256"
        }
      ],
      "name": "FleetSent",
      "type": "event"
    },
    {
      "anonymous": false,
      "inputs": [
        {
          "indexed": true,
          "internalType": "address",
          "name": "acquirer",
          "type": "address"
        },
        {
          "indexed": true,
          "internalType": "uint256",
          "name": "location",
          "type": "uint256"
        },
        {
          "indexed": false,
          "internalType": "uint256",
          "name": "newStake",
          "type": "uint256"
        },
        {
          "indexed": false,
          "internalType": "uint256",
          "name": "numSpaceships",
          "type": "uint256"
        },
        {
          "indexed": false,
          "internalType": "uint256",
          "name": "productionRate",
          "type": "uint256"
        }
      ],
      "name": "PlanetStake",
      "type": "event"
    },
    {
      "inputs": [],
      "name": "getGeneisHash",
      "outputs": [
        {
          "internalType": "bytes32",
          "name": "",
          "type": "bytes32"
        }
      ],
      "stateMutability": "view",
      "type": "function"
    },
    {
      "inputs": [
        {
          "internalType": "uint256",
          "name": "location",
          "type": "uint256"
        }
      ],
      "name": "getPlanet",
      "outputs": [
        {
          "components": [
            {
              "internalType": "address",
              "name": "owner",
              "type": "address"
            },
            {
              "internalType": "uint256",
              "name": "lastOwnershipTime",
              "type": "uint256"
            },
            {
              "internalType": "uint256",
              "name": "numSpaceships",
              "type": "uint256"
            },
            {
              "internalType": "uint256",
              "name": "lastUpdated",
              "type": "uint256"
            },
            {
              "internalType": "uint256",
              "name": "productionRate",
              "type": "uint256"
            },
            {
              "internalType": "uint256",
              "name": "stake",
              "type": "uint256"
            }
          ],
          "internalType": "struct OuterSpace.Planet",
          "name": "state",
          "type": "tuple"
        },
        {
          "components": [
            {
              "internalType": "int8",
              "name": "subX",
              "type": "int8"
            },
            {
              "internalType": "int8",
              "name": "subY",
              "type": "int8"
            },
            {
              "internalType": "uint256",
              "name": "maxStake",
              "type": "uint256"
            },
            {
              "internalType": "uint256",
              "name": "production",
              "type": "uint256"
            },
            {
              "internalType": "uint256",
              "name": "attack",
              "type": "uint256"
            },
            {
              "internalType": "uint256",
              "name": "defense",
              "type": "uint256"
            },
            {
              "internalType": "uint256",
              "name": "speed",
              "type": "uint256"
            },
            {
              "internalType": "uint256",
              "name": "natives",
              "type": "uint256"
            }
          ],
          "internalType": "struct OuterSpace.PlanetStats",
          "name": "stats",
          "type": "tuple"
        }
      ],
      "stateMutability": "view",
      "type": "function"
    },
    {
      "inputs": [
        {
          "internalType": "uint256",
          "name": "fleetId",
          "type": "uint256"
        },
        {
          "internalType": "uint256",
          "name": "to",
          "type": "uint256"
        },
        {
          "internalType": "uint256",
          "name": "distance",
          "type": "uint256"
        },
        {
          "internalType": "bytes32",
          "name": "secret",
          "type": "bytes32"
        }
      ],
      "name": "resolveFleet",
      "outputs": [],
      "stateMutability": "nonpayable",
      "type": "function"
    },
    {
      "inputs": [
        {
          "internalType": "address",
          "name": "attacker",
          "type": "address"
        },
        {
          "internalType": "uint256",
          "name": "fleetId",
          "type": "uint256"
        },
        {
          "internalType": "uint256",
          "name": "to",
          "type": "uint256"
        },
        {
          "internalType": "uint256",
          "name": "distance",
          "type": "uint256"
        },
        {
          "internalType": "bytes32",
          "name": "secret",
          "type": "bytes32"
        }
      ],
      "name": "resolveFleetFor",
      "outputs": [],
      "stateMutability": "nonpayable",
      "type": "function"
    },
    {
      "inputs": [
        {
          "internalType": "uint256",
          "name": "from",
          "type": "uint256"
        },
        {
          "internalType": "uint256",
          "name": "quantity",
          "type": "uint256"
        },
        {
          "internalType": "bytes32",
          "name": "toHash",
          "type": "bytes32"
        }
      ],
      "name": "send",
      "outputs": [],
      "stateMutability": "nonpayable",
      "type": "function"
    },
    {
      "inputs": [
        {
          "internalType": "address",
          "name": "owner",
          "type": "address"
        },
        {
          "internalType": "uint256",
          "name": "from",
          "type": "uint256"
        },
        {
          "internalType": "uint256",
          "name": "quantity",
          "type": "uint256"
        },
        {
          "internalType": "bytes32",
          "name": "toHash",
          "type": "bytes32"
        }
      ],
      "name": "sendFor",
      "outputs": [],
      "stateMutability": "nonpayable",
      "type": "function"
    },
    {
      "inputs": [
        {
          "internalType": "address",
          "name": "operator",
          "type": "address"
        },
        {
          "internalType": "bool",
          "name": "approved",
          "type": "bool"
        }
      ],
      "name": "setApprovalForAll",
      "outputs": [],
      "stateMutability": "nonpayable",
      "type": "function"
    },
    {
      "inputs": [
        {
          "internalType": "address",
          "name": "forPlayer",
          "type": "address"
        },
        {
          "internalType": "uint256",
          "name": "location",
          "type": "uint256"
        },
        {
          "internalType": "uint256",
          "name": "stakeAmount",
          "type": "uint256"
        }
      ],
      "name": "stake",
      "outputs": [],
      "stateMutability": "payable",
      "type": "function"
    },
    {
      "inputs": [
        {
          "internalType": "uint256",
          "name": "location",
          "type": "uint256"
        }
      ],
      "name": "withdraw",
      "outputs": [],
      "stateMutability": "nonpayable",
      "type": "function"
    }
  ],
  "address": "0x44e419070174b4fcad020bB3b8330c4c2481F87A",
  "args": [
    "0x3037e0B21e7B8E0BaBAF3611D6D0d5CaC51e67C0",
    "0xe0c3fa9ae97fc9b60baae605896b5e3e7cecb6baaaa4708162d1ec51e8d65a69"
  ],
  "linkedData": "0xe0c3fa9ae97fc9b60baae605896b5e3e7cecb6baaaa4708162d1ec51e8d65a69",
  "bytecode": "0x60c060405234801561001057600080fd5b5060405161178e38038061178e83398101604081905261002f9161004a565b60609190911b6001600160601b03191660805260a052610082565b6000806040838503121561005c578182fd5b82516001600160a01b0381168114610072578283fd5b6020939093015192949293505050565b60805160601c60a0516116be6100d0600039806104be5280610ca45280610d0a5280610d495280610d875280610de25280610e3e5280610e875280610ed15280610f1b5250506116be6000f3fe6080604052600436106100965760003560e01c806370fbd40911610069578063a22cb4651161004e578063a22cb46514610169578063df4d83c214610189578063ed52de62146101a957610096565b806370fbd409146101275780637cef64d81461014757610096565b8063046e53221461009b5780630c51b88f146100bd5780632e1a7d4d146100d057806334efcb8e146100f0575b600080fd5b3480156100a757600080fd5b506100bb6100b636600461125f565b6101c9565b005b6100bb6100cb366004611162565b6101e3565b3480156100dc57600080fd5b506100bb6100eb36600461121c565b6103cd565b3480156100fc57600080fd5b5061011061010b36600461121c565b6103d0565b60405161011e9291906115b4565b60405180910390f35b34801561013357600080fd5b506100bb6101423660046111ce565b61043f565b34801561015357600080fd5b5061015c6104bc565b60405161011e91906112f1565b34801561017557600080fd5b506100bb610184366004611127565b6104e0565b34801561019557600080fd5b506100bb6101a4366004611234565b61057c565b3480156101b557600080fd5b506100bb6101c4366004611195565b610594565b6101dd6101d4610616565b8585858561061a565b50505050565b60006101ed610616565b9050670de0b6b3a76400008210156102205760405162461bcd60e51b81526004016102179061140d565b60405180910390fd5b600061022a611088565b610233856107ad565b815491935091506001600160a01b03168061027e5782547fffffffffffffffffffffffff0000000000000000000000000000000000000000166001600160a01b0388161783556102af565b806001600160a01b0316876001600160a01b0316146102af5760405162461bcd60e51b8152600401610217906114a1565b426001840155600583015460038401546000906102ea5760006102dc610e108660e00151612710806107d8565b50610e100391506103049050565b610301856002015486600301548760040154610878565b90505b600285018190556040840151670de0b6b3a764000002828801111561033b5760405162461bcd60e51b815260040161021790611368565b8187016005860181905560408501516060860151600091670de0b6b3a7640000029083028161036657fe5b04600488018190554260038901556040519091508a906001600160a01b038d16907fc2e3ad9d02083ff1a6dee89db14cbc57ddac1d6c6d3c7cabdd9454000c0845ce906103b890869088908790611672565b60405180910390a35050505050505050505050565b50565b6103d86110d1565b6103e0611088565b6103e9836107ad565b6040805160c08101825283546001600160a01b0316815260018401546020820152600284015491810191909152600383015460608201526004830154608082015260059092015460a08301529092509050915091565b6000610449610616565b9050856001600160a01b0316816001600160a01b0316146104a7576001600160a01b038087166000908152602081815260408083209385168352929052205460ff166104a75760405162461bcd60e51b81526004016102179061157d565b6104b4868686868661061a565b505050505050565b7f000000000000000000000000000000000000000000000000000000000000000090565b60006104ea610616565b6001600160a01b03818116600081815260208181526040808320948916808452949091529081902080547fffffffffffffffffffffffffffffffffffffffffffffffffffffffffffffff00168715151790555192935090917f17307eab39ab6107e8899845ad3d59bd9653f200f220920489ca2b5937696c319061056f9086906112e6565b60405180910390a3505050565b61058f610587610616565b848484610895565b505050565b600061059e610616565b9050846001600160a01b0316816001600160a01b0316146105fc576001600160a01b038086166000908152602081815260408083209385168352929052205460ff166105fc5760405162461bcd60e51b81526004016102179061157d565b61060f610607610616565b858585610895565b5050505050565b3390565b600084815260026020526040902060018101546001600160a01b038781169116146106575760405162461bcd60e51b815260040161021790611331565b8060030154828560405160200161066f92919061129d565b60405160208183030381529060405280519060200120146106a25760405162461bcd60e51b8152600401610217906112fa565b60028101546106af611088565b6106b8826107ad565b91505060006106c5611088565b6106ce886107ad565b915091506106df8785858b85610a1a565b6040805160a0810182528654815260018701546001600160a01b03166020820152600287015491810191909152600386015460608201526004860154608082015261072d9088908590610ac4565b81546001600160a01b038b81169116141561078f576004850154600283018054909101905560405188908a906001600160a01b038d16907ff649903b29c8e1970a53c944db6182117ed01e714838847c3f6f717d66f1b79090600090a46107a1565b6107a18a848a848d8a60040154610b26565b50505050505050505050565b60006107b7611088565b60008381526001602052604090206107ce84610c95565b9092509050915091565b6000808061271087860204905060006127108786020490506000828861271002816107ff57fe5b04905087612710028382021015610814576001015b6000828a612710028161082357fe5b04905089612710028382021015610838576001015b60006108448383610f62565b9050610856612710858302048c610f62565b9650610868612710828702048b610f62565b9550505050505094509492505050565b6000610e1082844203028161088957fe5b04840190509392505050565b60006108a0846107ad565b5080549091506001600160a01b038681169116146108d05760405162461bcd60e51b8152600401610217906113d6565b60006108e9826002015483600301548460040154610878565b90508381101561090b5760405162461bcd60e51b8152600401610217906114d8565b8381038260020181905550428260030181905550600060036000815460010191905081905590506040518060a00160405280428152602001886001600160a01b0316815260200187815260200185815260200186815250600260008381526020019081526020016000206000820151816000015560208201518160010160006101000a8154816001600160a01b0302191690836001600160a01b0316021790555060408201518160020155606082015181600301556080820151816004015590505085876001600160a01b03167f199a18ce753a9876eb81ff08178737dbcb8fc49a26ee9b139c843790da859a8d8388604051610a0992919061129d565b60405180910390a350505050505050565b60006002846020015160000b608087901c60040201836020015160000b608086901c6004020103600f0b0a6002856000015160000b876fffffffffffffffffffffffffffffffff1660040201846000015160000b866fffffffffffffffffffffffffffffffff166004020103600f0b0a01600f0b9050806002870a11158015610aa857506002866001010a81105b6104b45760405162461bcd60e51b815260040161021790611546565b60c0820151600081630225510081610ad857fe5b048502836000015101905080421015610b035760405162461bcd60e51b81526004016102179061150f565b80611c2001421061060f5760405162461bcd60e51b815260040161021790611444565b600084815260016020526040812060028101546003820154600490920154610b4e9290610878565b9050600080610b6784848a608001518960a001516107d8565b9150915083821415610bd85760008781526001602052604080822083860360029091015551889187916001600160a01b038d16917f071038d411fce6cbee99de56f76696090d07fb03d182a383e8cffea84c5763c291610bcb91889188919061165a565b60405180910390a4610c76565b82811415610c765760008781526001602081905260409182902080547fffffffffffffffffffffffff0000000000000000000000000000000000000000166001600160a01b038d169081178255428284015585880360029092019190915591518992889290917f071038d411fce6cbee99de56f76696090d07fb03d182a383e8cffea84c5763c291610c6d918891889161165a565b60405180910390a45b5050506000938452505060016020525060409020426003909101555050565b610c9d611088565b6000610cd37f0000000000000000000000000000000000000000000000000000000000000000846001601063ffffffff610f7d16565b60ff16600114905080610cf85760405162461bcd60e51b81526004016102179061139f565b60408051610100810190915280610d397f0000000000000000000000000000000000000000000000000000000000000000866002600363ffffffff610f7d16565b60010360000b8152602001610d777f00000000000000000000000000000000000000000000000000000000000000008660038063ffffffff610f7d16565b60010360000b8152602001610dd47f00000000000000000000000000000000000000000000000000000000000000008660047e01000200030004000500070009000a000a000c000f00140019001e0032006463ffffffff610fbf16565b61ffff168152602001610e307f00000000000000000000000000000000000000000000000000000000000000008660057f0708083409600a8c0bb80ce40e100e100e100e101068151819c81e7823282ee063ffffffff610fbf16565b61ffff168152602001610e6b7f000000000000000000000000000000000000000000000000000000000000000086600663ffffffff61100716565b60ff1661019002610fa00161ffff168152602001610eb58560077f00000000000000000000000000000000000000000000000000000000000000006110079092919063ffffffff16565b60ff1661019002610fa00161ffff168152602001610eff8560087f00000000000000000000000000000000000000000000000000000000000000006110079092919063ffffffff16565b60ff1661014e026113920161ffff168152602001610f498560097f00000000000000000000000000000000000000000000000000000000000000006110079092919063ffffffff16565b60640260ff166107d00161ffff16815250915050919050565b600081831115610f725781610f74565b825b90505b92915050565b600081848685604051602001610f95939291906112ab565b6040516020818303038152906040528051906020012060001c81610fb557fe5b0695945050505050565b600080610fcd868686611007565b9050828160020260010160ff1660208110610fe457fe5b1a836002830260ff1660208110610ff757fe5b1a61010002019695505050505050565b6000806110178585856040610f7d565b9050600260ff808316919091049060018316906000907f01223334444555555666666677777777888888889999999aaaaaabbbbcccddef9084166020811061105b57fe5b1a9050600060ff83166110765750600f600482901c1661107c565b50600f81165b98975050505050505050565b6040518061010001604052806000800b81526020016000800b81526020016000815260200160008152602001600081526020016000815260200160008152602001600081525090565b6040518060c0016040528060006001600160a01b0316815260200160008152602001600081526020016000815260200160008152602001600081525090565b80356001600160a01b0381168114610f7757600080fd5b60008060408385031215611139578182fd5b6111438484611110565b915060208301358015158114611157578182fd5b809150509250929050565b600080600060608486031215611176578081fd5b6111808585611110565b95602085013595506040909401359392505050565b600080600080608085870312156111aa578081fd5b6111b48686611110565b966020860135965060408601359560600135945092505050565b600080600080600060a086880312156111e5578081fd5b85356001600160a01b03811681146111fb578182fd5b97602087013597506040870135966060810135965060800135945092505050565b60006020828403121561122d578081fd5b5035919050565b600080600060608486031215611248578283fd5b505081359360208301359350604090920135919050565b60008060008060808587031215611274578384fd5b5050823594602084013594506040840135936060013592509050565b6001600160a01b03169052565b918252602082015260400190565b928352602083019190915260f81b7fff0000000000000000000000000000000000000000000000000000000000000016604082015260410190565b901515815260200190565b90815260200190565b60208082526018908201527f696e76616c69642027746f27206f722027736563726574270000000000000000604082015260600190565b60208082526012908201527f6e6f74206f776e6572206f6620666c6565740000000000000000000000000000604082015260600190565b60208082526011908201527f65786365656473206d6178207374616b65000000000000000000000000000000604082015260600190565b6020808252601a908201527f6e6f20706c616e657420696e2074686973206c6f636174696f6e000000000000604082015260600190565b60208082526017908201527f6e6f74206f776e6572206f662074686520706c616e6574000000000000000000604082015260600190565b60208082526011908201527f6d696e756d756d207374616b65203a2031000000000000000000000000000000604082015260600190565b6020808252602b908201527f746f6f206c6174652c20796f7572207370616365736869707320617265206c6f60408201527f737420696e207370616365000000000000000000000000000000000000000000606082015260800190565b6020808252601d908201527f616c7265616479206f776e656420627920736f6d656f6e6520656c7365000000604082015260600190565b60208082526015908201527f6e6f7420656e6f75676820737061636573686970730000000000000000000000604082015260600190565b60208082526009908201527f746f6f206561726c790000000000000000000000000000000000000000000000604082015260600190565b6020808252600e908201527f77726f6e672064697374616e6365000000000000000000000000000000000000604082015260600190565b6020808252600e908201527f4e4f545f415554484f52495a4544000000000000000000000000000000000000604082015260600190565b60006101c0820190506115c8828551611290565b6020840151602083015260408401516040830152606084015160608301526080840151608083015260a084015160a0830152825160000b60c0830152602083015160000b60e083015260408301516101008301526060830151610120830152608083015161014083015260a083015161016083015260c083015161018083015260e08301516101a08301529392505050565b92835260208301919091521515604082015260600190565b928352602083019190915260408201526060019056fea264697066735822122048fe2175d966556f00bd1cb9510dfb4abd79f31529282bc97ad928824d12d14b64736f6c63430006050033"
}